:100000000C9434000C9449000C9449000C94490061
:100010000C9449000C9449000C9449000C9449003C
:100020000C9449000C9449000C9449000C9449002C
:100030000C9449000C9449000C9449000C9449001C
:100040000C9449000C9449000C9449000C9449000C
:100050000C9449000C94B8000C9449000C9449008D
:100060000C9449000C94490011241FBECFEFD8E036
:10007000DEBFCDBF11E0A0E0B1E0E8E9F2E002C0F0
:1000800005900D92A630B107D9F70E94AC000C94F0
:100090004A010C9400005D9A000000008BB1807C46
:1000A0008BB9089514B85F9A8BB1887F8BB902C061
:1000B0000E944B002F99FCCF8FEF84B908951F93B6
:1000C000182F0E94520015B98BB18B778BB90E9403
:1000D0004B0015B81F9108951F93182F0E945200CE
:1000E00015B95F985A9A0E944B0015B81F91089550
:1000F000CF93DF93EC0103C021960E946C008881AE
:100100008823D1F7DF91CF9108958158E0E0F1E0A5
:10011000E60FF11D9081890F0E945F0008951F93E3
:100120008AB1846A8AB980E395E70197F1F781E0A3
:100130000E945F0080EA9FE00197F1F788E30E9448
:100140005F0015E8812F8A95F1F78EE00E945F002D
:100150001A95F1F71F910895789480917C0080663C
:1001600080937C0080917A008C6C80937A00FFCF22
:100170001F920F920FB60F9211240F931F932F937C
:100180003F934F935F936F937F938F939F93AF931F
:10019000BF93EF93FF93DF93CF9300D000D0CDB701
:1001A000DEB78091790090E08E010F5F1F4FB8019C
:1001B0004AE050E00E94050181E061E00E94850074
:1001C000C8010E94780080E091E00E947800EAE790
:1001D000F0E08081806480830F900F900F900F90EB
:1001E000CF91DF91FF91EF91BF91AF919F918F914F
:1001F0007F916F915F914F913F912F911F910F913F
:100200000F900FBE0F901F901895FB019F01E8946F
:100210004230C4F04532B4F44A3029F497FB1EF45E
:10022000909581959F4F642F77270E943601805DBE
:100230008A330CF0895D8193CB010097A1F716F406
:100240005DE251931082C9010C942601DC01FC018E
:10025000672F71917723E1F7329704C07C916D93FA
:1002600070836291AE17BF07C8F30895AA1BBB1B2A
:1002700051E107C0AA1FBB1FA617B70710F0A61BA6
:10028000B70B881F991F5A95A9F780959095BC01C7
:08029000CD010895F894FFCFA1
:06029800000040145400B8
:00000001FF
