:100000000C9434000C943E000C943E000C943E0082
:100010000C943E000C943E000C943E000C943E0068
:100020000C943E000C943E000C943E000C943E0058
:100030000C943E000C943E000C943E000C943E0048
:100040000C943E000C943E000C943E000C943E0038
:100050000C943E000C943E000C943E000C943E0028
:100060000C943E000C943E0011241FBECFEFD8E04C
:10007000DEBFCDBF0E9440000C945B000C940000DA
:1000800081E084B9219882E085B96EEF40E25EE4B8
:1000900028EC30E085B1862785B9199904C0CA01DA
:1000A0000197F1F7F7CF88EE93E0F9013197F1F777
:0A00B0000197D9F7EFCFF894FFCFC6
:00000001FF
