:100000000C942A000C9434000C9434000C943400AA
:100010000C9434000C9434000C9434000C94340090
:100020000C9434000C9434000C9434000C94340080
:100030000C9434000C9434000C9434000C94340070
:100040000C9434000C9434000C9434000C94340060
:100050000C94340011241FBECFE5D8E0DEBFCDBF25
:100060000E9446000C9458000C94000089B990BD81
:1000700086E880BD88E18AB908955F9BFECF8CB188
:1000800090E008955D9BFECF8CB908951F938FE299
:1000900090E00E9436000E943D00182F8BE50E94E0
:1000A0004200812F0E9442008DE50E944200F3CF62
:0400B000F894FFCFF2
:00000001FF
