:100000000C942A000C9434000C9434000C943400AA
:100010000C9434000C9434000C9434000C94340090
:100020000C9434000C9434000C9434000C94340080
:100030000C9434000C9434000C9434000C94340070
:100040000C9434000C9434000C9434000C94340060
:100050000C94340011241FBECFE5D8E0DEBFCDBF25
:100060000E9481000C9496000C9400008A30E0F508
:10007000843029F1853048F48130C1F0813098F026
:100080008230B9F0833061F517C0873009F18830CC
:1000900028F48530B9F0863019F517C08830D9F0CA
:1000A0008930F1F41BC083E082BB1AC08FE982BBA8
:1000B00017C085E282BB14C08DE082BB11C089E904
:1000C00082BB0EC089E482BB0BC081E482BB08C046
:1000D0008FE182BB05C081E082BB02C089E082BBA8
:1000E000662321F0909808958DEF82BB08958FEFDD
:1000F0009FEFACE281509040A040E1F700C00000CB
:1001000008951F938FEF81BB82BB80E060E00E9467
:10011000360011E001C010E00E947700812F60E0FE
:100120000E9436001F5F1A30B9F7F5CFF894FFCF61
:00000001FF
