:100000000C9434000C943E000C943E000C943E0082
:100010000C943E000C943E000C943E000C943E0068
:100020000C943E000C943E000C943E000C94500046
:100030000C943E000C943E000C943E000C943E0048
:100040000C943E000C943E000C943E000C943E0038
:100050000C943E000C943E000C943E000C943E0028
:100060000C943E000C943E0011241FBECFEFD8E04C
:10007000DEBFCDBF0E9440000C9462000C940000D3
:1000800081E084B978948BE08093810082E0809352
:100090006F0088E09DE39093890080938800FFCFF4
:1000A0001F920F920FB60F9211248F939F9385B1D9
:1000B00091E0892785B99F918F910F900FBE0F9086
:0800C0001F901895F894FFCF82
:00000001FF
