:100000000C942A000C943F000C943F000C943F0089
:100010000C943F000C943F000C943F000C943F0064
:100020000C943F000C943F000C943F000C943F0054
:100030000C943F000C943F000C943F000C943F0044
:100040000C947C010C943F000C943F000C943F00F6
:100050000C943F0011241FBECFE5D8E0DEBFCDBF1A
:1000600010E0A0E6B0E0E0EEF3E002C005900D92F3
:10007000A63AB107D9F70E9464010C94EE010C94E2
:10008000000087B3807F87BB969A939882E08A9519
:10009000F1F722E034E0C49A822F8A95F1F786B313
:1000A0008295807F922F9A95F1F7C498932F9A9515
:1000B000F1F7C49A922F9A95F1F796B3922F9A95E9
:1000C000F1F7C498932F9A95F1F787FDE4CF9698AE
:1000D00087B38F6087BB0895282F662311F4939808
:1000E00001C0939A82E08A95F1F7C49A88B3922F5F
:1000F00092959F70807F982B98BB94E0892F8A956A
:10010000F1F7C498892F8A95F1F7C49A88B32F70B4
:10011000807F822B88BB892F8A95F1F7C4989A95A6
:10012000F1F70E9441000895CF93DF93EC0110C0D6
:10013000853251F4219688818053883028F085E2F9
:1001400061E00E946C00888161E00E946C00219651
:100150008881882369F7DF91CF910895EF92FF920C
:100160000F931F93DF93CF9300D000D00F92CDB7A2
:10017000DEB79C018B01FE01319685E0DF011D9207
:100180008A95E9F7FE0135960DC0C9016AE070E075
:100190000E94C7018083C9016AE070E00E94C70124
:1001A0009B0131972115310581F7BFEF0F3F1B07E9
:1001B00079F420E030E0AE014F5F5F4F02C02F5F67
:1001C0003F4FFA01E20FF31F80818823C1F304C07F
:1001D00025E030E0201B310B7E010894E11CF11C6E
:1001E000E20EF31E890109C0F70181917F01805D54
:1001F00061E00E946C000F5F1F4F05301105A4F3F2
:100200000F900F900F900F900F90CF91DF911F9153
:100210000F91FF90EF900895843178F4623031F0BF
:10022000633031F0613029F4806403C08C5E01C01A
:100230008C5A806860E00E946C0008951F93CF93F1
:10024000DF93182F8CE291E020E731E0F90131973C
:10025000F1F70197D9F787B38F6087BBBC9A8B9A68
:100260008E9A88B3807F88BBC4989698939881E0D3
:100270008A95F1F7C49AC19A84E0982F9A95F1F77C
:10028000C4988A95F1F70E944100812F8C6060E04C
:100290000E946C0088E260E00E946C0080E460E0F4
:1002A0000E946C00C6E6D0E0899161E00E946C007B
:1002B00080E0C63AD807C1F780E060E00E940C01F8
:1002C000DF91CF911F91089583E00E941E0180E687
:1002D00090E00E94940080E061E00E940C0183E6BF
:1002E00090E00E949400329A87B1806C87B9339A6B
:1002F000379A7894369AFFCF1F920F920FB60F92CB
:1003000011242F933F934F935F936F937F938F931A
:100310009F93AF93BF93CF93DF93EF93FF9334B14A
:1003200025B1922F80E0C32FD0E0C82BD92B87B105
:10033000803C19F0813CB9F40BC084E061E00E947C
:100340000C01CE0164E070E00E94AE0081EC0AC0B6
:1003500084E062E00E940C01CE0164E070E00E9443
:10036000AE0080EC87B9369AFF91EF91DF91CF9183
:10037000BF91AF919F918F917F916F915F914F91BD
:100380003F912F910F900FBE0F901F90189597FBE4
:10039000092E07260AD077FD04D00CD006D0002005
:1003A0001AF4709561957F4F0895F6F790958195B1
:1003B0009F4F0895AA1BBB1B51E107C0AA1FBB1F7B
:1003C000A617B70710F0A61BB70B881F991F5A95E1
:1003D000A9F780959095BC01CD010895F894FFCFC1
:1003E000583A00593A000C12120C000000000C128E
:1003F00004081E0000000A15110A0400000003058D
:10040000090B0B1818001F0E0E040404040401014C
:100410000505151515000E11111F1F1F1F000000E7
:06042000000000000000D6
:00000001FF
