:100000000C942A000C943F000C943F000C943F0089
:100010000C943F000C943F000C943F000C943F0064
:100020000C943F000C943F000C943F000C943F0054
:100030000C943F000C943F000C943F000C943F0044
:100040000C943F000C943F000C943F000C943F0034
:100050000C943F0011241FBECFE5D8E0DEBFCDBF1A
:1000600011E0A0E6B0E0E4E5F4E002C005900D92F6
:10007000AE30B107D9F70E9441000C9428020C94CD
:100080000000EF92FF920F931F93CF93DF9383E0D3
:100090000E94B90181E060E00E94FA0080E690E0F1
:1000A0000E94220180E061E00E94A7018AE690E0C0
:1000B0000E942201C0E0D0E00F2EF3E7EF2EF0E027
:1000C000FF2EF02D00E010E089E061E00E94A70122
:1000D000CE0163E070E00E9446018CE061E00E9486
:1000E000A701C7010E942201C8010197F1F7C801C9
:1000F0000197F1F7C8010197F1F7C8010197F1F7EE
:100100002196C336D10501F781E060E00E94FA0034
:1001100086E790E00E94220180E061E00E94A70152
:1001200082E890E00E94220144E620E030E0C9012C
:100130000197F1F74150D9F781E060E00E94FA00A1
:1001400083E990E00E94220180E061E00E94A70123
:100150008FE990E00E94220140E020E030E0C901F8
:100160000197F1F74F5F4436D1F781E060E00E94DC
:10017000FA008DEA90E00E94220180E061E00E9496
:10018000A7018DEB90E00E942201DF91CF911F919A
:100190000F91FF90EF90089587B3807F87BB969A69
:1001A000939882E08A95F1F700C0C49A92E09A95FC
:1001B000F1F700C086B38295807F92E09A95F1F7BF
:1001C00000C0C49895E09A95F1F7C49A92E09A9588
:1001D000F1F700C096B392E09A95F1F700C0C49889
:1001E00095E09A95F1F7882304F3969887B38F608A
:1001F00087BB0895282F22952F708F70662311F4E6
:10020000939801C0939A92E09A95F1F700C0C49A2E
:1002100098B3907F922B98BB95E09A95F1F7C4988C
:1002200095E09A95F1F7C49A98B3907F892B88BB93
:1002300085E08A95F1F7C49895E09A95F1F70E94C8
:10024000CC000895CF93DF93EC0188818823D9F007
:10025000853291F4219688818053883020F461E0C2
:100260000E94FA000CC085E261E00E94FA008881D9
:1002700061E00E94FA0003C061E00E94FA0021964A
:100280008881882329F7DF91CF910895EF92FF921B
:100290000F931F93DF93CF9300D000D00F92CDB771
:1002A000DEB77B01FE01319625E0DF011D922A9524
:1002B000E9F7009761F0FE0136962AE030E0B901D7
:1002C0000E9401028293862F972F0097C1F7BFEFFC
:1002D000EB16BFEFFB0669F42981222379F4FE01B6
:1002E000329600E010E00F5F1F4F21912223D9F3D7
:1002F00007C005E010E00E191F0902C000E010E081
:10030000992324F48DE261E00E94FA000530110582
:1003100094F47E010894E11CF11CE00EF11EF7013B
:1003200081917F01805D61E00E94FA000F5F1F4FA5
:1003300005301105A4F30F900F900F900F900F90C0
:10034000CF91DF911F910F91FF90EF90089584312D
:1003500078F4623031F0633031F0613029F4806438
:1003600003C08C5E01C08C5A806860E00E94FA0075
:1003700008950F931F93CF93DF93082F89E999E591
:10038000A1E081509040A040E1F7000087B38F606A
:1003900087BBBC9A8B9A8E9A88B3807F88BBC4989F
:1003A0009698939800C000C00000C49AC19A95E046
:1003B0009A95F1F7C498A5E0AA95F1F70E94CC00B0
:1003C000802F8C6060E00E94FA0088E260E00E946A
:1003D000FA0080E460E00E94FA00CEECD0E00EE08B
:1003E00011E0899161E00E94FA00C017D107C9F7B6
:1003F00080E060E00E94A701DF91CF911F910F91F3
:10040000089597FB092E07260AD077FD04D00CD05B
:1004100006D000201AF4709561957F4F0895F6F785
:10042000909581959F4F0895AA1BBB1B51E107C072
:10043000AA1FBB1FA617B70710F0A61BB70B881F74
:10044000991F5A95A9F780959095BC01CD01089503
:04045000F894FFCF4E
:10045400436F6E677261747320004C6F6164696EE0
:1004640067200025200048656C6C6F20776F726CE4
:100474006400427920596F75724E616D652048653C
:100484007265002020202065587472656D65002017
:1004940020456C656374726F6E6963730043757392
:1004A400746F6D204368617220212121002530255D
:1004B40031253225332534253525362537000C12D0
:1004C400120C000000000C1204081E0000000A15A3
:1004D400110A040000000305090B0B1818001F0E75
:1004E4000E040404040401010505151515000E117C
:0E04F400111F1F1F1F0000000000000000006D
:00000001FF
