:100000000C9434000C943E000C943E000C943E0082
:100010000C943E000C943E000C943E000C943E0068
:100020000C943E000C943E000C943E000C943E0058
:100030000C943E000C943E000C943E000C943E0048
:100040000C943E000C943E000C943E000C943E0038
:100050000C943E000C943E000C943E000C943E0028
:100060000C943E000C943E0011241FBECFEFD8E04C
:10007000DEBFCDBF0E9440000C9471000C940000C4
:1000800091E094B985B1892785B984E084B9219834
:1000900082E085B920E030E080E090E040E050E090
:1000A00071E064E002C020E030E0199913C00196CD
:1000B000E1E0853F9E07CCF32115310541F485B180
:1000C000872785B985B1862785B921E030E080E0B2
:1000D00090E0EBCF4F5F5F4FE1E0453F5E071CF7DD
:0600E000E4CFF894FFCF0D
:00000001FF
