:100000000C942A000C943F000C943F000C943F0089
:100010000C943F000C943F000C943F000C943F0064
:100020000C943F000C943F000C943F000C943F0054
:100030000C943F000C943F000C943F000C943F0044
:100040000C943F000C943F000C943F000C943F0034
:100050000C943F0011241FBECFE5D8E0DEBFCDBF1A
:1000600010E0A0E6B0E0E4EBF3E002C005900D92F2
:10007000A63AB107D9F70E9441000C94D8010C941C
:10008000000083E00E94690181E061E00E94570165
:1000900080E690E00E94D20082E061E00E94570179
:1000A00083E690E00E94D20087B1806687B986B16E
:1000B000886D86B9FFCF87B1803C19F0813CD1F4BF
:1000C0000DC081E064E00E94570184B195B164E005
:1000D00070E00E94F60081EC87B90CC082E064E019
:1000E0000E94570184B195B164E070E00E94F6006F
:1000F00080EC87B9369A089587B3807F87BB969A3C
:10010000939882E08A95F1F700C0C49A92E09A959C
:10011000F1F700C086B38295807F92E09A95F1F75F
:1001200000C0C49895E09A95F1F7C49A92E09A9528
:10013000F1F700C096B392E09A95F1F700C0C49829
:1001400095E09A95F1F7882304F3969887B38F602A
:1001500087BB0895282F22952F708F70662311F486
:10016000939801C0939A92E09A95F1F700C0C49ACF
:1001700098B3907F922B98BB95E09A95F1F7C4982D
:1001800095E09A95F1F7C49A98B3907F892B88BB34
:1001900085E08A95F1F7C49895E09A95F1F70E9469
:1001A0007C000895CF93DF93EC0188818823D9F0F8
:1001B000853291F4219688818053883020F461E063
:1001C0000E94AA000CC085E261E00E94AA0088811A
:1001D00061E00E94AA0003C061E00E94AA0021968B
:1001E0008881882329F7DF91CF910895EF92FF92BC
:1001F0000F931F93DF93CF9300D000D00F92CDB712
:10020000DEB77B01FE01319625E0DF011D922A95C4
:10021000E9F7009761F0FE0136962AE030E0B90177
:100220000E94B1018293862F972F0097C1F7BFEFED
:10023000EB16BFEFFB0669F42981222379F4FE0156
:10024000329600E010E00F5F1F4F21912223D9F377
:1002500007C005E010E00E191F0902C000E010E021
:10026000992324F48DE261E00E94AA000530110573
:1002700094F47E010894E11CF11CE00EF11EF701DC
:1002800081917F01805D61E00E94AA000F5F1F4F96
:1002900005301105A4F30F900F900F900F900F9061
:1002A000CF91DF911F910F91FF90EF9008958431CE
:1002B00078F4623031F0633031F0613029F48064D9
:1002C00003C08C5E01C08C5A806860E00E94AA0066
:1002D00008950F931F93CF93DF93082F89E999E532
:1002E000A1E081509040A040E1F7000087B38F600B
:1002F00087BBBC9A8B9A8E9A88B3807F88BBC49840
:100300009698939800C000C00000C49AC19A95E0E6
:100310009A95F1F7C498A5E0AA95F1F70E947C00A0
:10032000802F8C6060E00E94AA0088E260E00E945A
:10033000AA0080E460E00E94AA00C6E6D0E006EAD7
:1003400010E0899161E00E94AA00C017D107C9F7A7
:1003500080E060E00E945701DF91CF911F910F91E3
:10036000089597FB092E07260AD077FD04D00CD0FC
:1003700006D000201AF4709561957F4F0895F6F726
:10038000909581959F4F0895AA1BBB1B51E107C013
:10039000AA1FBB1FA617B70710F0A61BB70B881F15
:1003A000991F5A95A9F780959095BC01CD010895A4
:0403B000F894FFCFEF
:1003B400783D00793D000C12120C000000000C1274
:1003C40004081E0000000A15110A040000000305B9
:1003D400090B0B1818001F0E0E0404040404010179
:1003E4000505151515000E11111F1F1F1F00000014
:0603F40000000000000003
:00000001FF
