:100000000C942A000C9434000C9434000C943400AA
:100010000C9434000C9434000C9434000C94340090
:100020000C9434000C9434000C9434000C94340080
:100030000C9434000C9434000C9434000C94340070
:100040000C9434000C9434000C9434000C94340060
:100050000C94340011241FBECFE5D8E0DEBFCDBF25
:100060000E9440000C9459000C94000006C0E6E683
:10007000FEE03197F1F7000081508823C1F7089521
:100080008EB58C608EBD85E290E29BBD8ABD87B344
:10009000806C87BBB89880E090E020E108B604FE51
:1000A00003C0019628BFC69A87309105BCF3C69A53
:0600B000F5CFF894FFCF2C
:00000001FF
