:100000000C942A000C9434000C9434000C943400AA
:100010000C9434000C9434000C9434000C94340090
:100020000C9434000C9434000C9434000C94340080
:100030000C9434000C9434000C9434000C94340070
:100040000C9434000C9434000C9434000C94340060
:100050000C94340011241FBECFE5D8E0DEBFCDBF25
:100060000E9436000C9454000C9400008EB58C60F5
:100070008EBD85E290E29BBD8ABD87B3806C87BB55
:10008000B89840E430E180E090E008B604FE05C096
:1000900028B3242728BB38BF019687309105ACF3DD
:0C00A00088B3805888BBEFCFF894FFCFE6
:00000001FF
