:100000000C942A000C943F000C943F000C943F0089
:100010000C943F000C943F000C943F000C943F0064
:100020000C943F000C943F000C943F000C943F0054
:100030000C943F000C943F000C943F000C943F0044
:100040000C945A000C943F000C943F000C943F0019
:100050000C943F0011241FBECFE5D8E0DEBFCDBF1A
:1000600010E0A0E6B0E0EEEDF3E002C005900D92E6
:10007000A43AB107D9F70E9441000C94ED010C9409
:10008000000080E00E94790180E060E00E9467014A
:1000900080E690E00E94FB0080E061E00E94670142
:1000A00082E690E00E94FB0078943E9A86B18C6CC8
:1000B00086B9FFCF1F920F920FB60F9211242F9384
:1000C0003F934F935F936F937F938F939F93AF93E0
:1000D000BF93CF93DF93EF93FF9324B135B1932F69
:1000E00080E0C22FD0E0C82BD92B87B1803419F023
:1000F0008134B9F40BC084E060E00E946701CE0156
:1001000064E070E00E94150181E40AC084E061E0CF
:100110000E946701CE0164E070E00E94150180E456
:1001200087B9369AFF91EF91DF91CF91BF91AF914F
:100130009F918F917F916F915F914F913F912F91FF
:100140000F900FBE0F901F90189587B3807F87BBCD
:10015000969A939882E08A95F1F700C0C49A92E04B
:100160009A95F1F700C086B38295807F92E09A95C8
:10017000F1F700C0C49895E09A95F1F7C49A92E01F
:100180009A95F1F700C096B392E09A95F1F700C006
:10019000C49895E09A95F1F787FDE0CF969887B3DC
:1001A0008F6087BB0895282F22952F708F7066234C
:1001B00011F4939801C0939A92E09A95F1F700C0D8
:1001C000C49A98B3907F922B98BB95E09A95F1F7DB
:1001D000C49895E09A95F1F7C49A98B3907F982BBC
:1001E00098BB85E08A95F1F7C49895E09A95F1F768
:1001F0000E94A5000895CF93DF93EC0110C08532D3
:1002000051F4219688818053883028F085E261E09E
:100210000E94D300888161E00E94D30021968881EA
:10022000882369F7DF91CF910895EF92FF920F93A2
:100230001F93DF93CF9300D000D00F92CDB7DEB7DE
:100240009B01FE01319645E0DF011D924A95E9F7D9
:10025000FE0136960AE010E005C0B8010E94C60112
:100260008293CB010097C9F7BFEF2F3F3B0751F4B3
:10027000FE01319680E090E001C001962191222399
:10028000E1F304C085E090E0821B930B8E010F5FC9
:100290001F4F080F191F7C010AC0F80181918F01BF
:1002A000805D61E00E94D3000894E11CF11CF5E040
:1002B000EF16F10494F30F900F900F900F900F90A2
:1002C000CF91DF911F910F91FF90EF9008958431AE
:1002D00078F4623031F0633031F0613029F48064B9
:1002E00003C08C5E01C08C5A806860E00E94D3001D
:1002F00008950F931F93DF93CF930F92CDB7DEB77F
:1003000029E939E541E0215030404040E1F7000063
:1003100097B39F6097BBBC9A8B9A8E9A98B3907F45
:1003200098BBC4989698939800C000C00000C49AE7
:10033000C19A35E03A95F1F7C49845E04A95F1F74E
:1003400089830E94A50089818C6060E00E94D300AF
:1003500088E260E00E94D30080E460E00E94D30065
:1003600004E610E0F80181918F0161E00E94D30062
:10037000F0E0043A1F07B1F780E060E00E946701F7
:100380000F90CF91DF911F910F91089597FB092E48
:1003900007260AD077FD04D00CD006D000201AF42E
:1003A000709561957F4F0895F6F7909581959F4FD1
:1003B0000895AA1BBB1B51E107C0AA1FBB1FA617AC
:1003C000B70710F0A61BB70B881F991F5A95A9F7FE
:0E03D00080959095BC01CD010895F894FFCF63
:1003DE00580059000C12120C000000000C120408F8
:1003EE001E0000000A15110A040000000305090B87
:1003FE000B1818001F0E0E04040404040101050559
:10040E00151515000E11111F1F1F1F0000000000F3
:04041E0000000000DA
:00000001FF
