:100000000C942A000C943C000C943C000C943C0092
:100010000C943C000C943C000C943C000C943C0070
:100020000C943C000C943C000C943C000C94D200CA
:100030000C943C000C943C000C943C000C943C0050
:100040000C943C000C943C000C943C000C943C0040
:100050000C943C0011241FBECFE5D8E0DEBFCDBF1D
:1000600010E0A0E6B0E001C01D92A436B107E1F7B0
:100070000E94AE000C942B010C9400008A30E0F535
:10008000843029F1853048F48130C1F0813098F016
:100090008230B9F0833061F517C0873009F18830BC
:1000A00028F48530B9F0863019F517C08830D9F0BA
:1000B0008930F1F41BC08FE382BB1AC086E082BB9B
:1000C00017C08BE582BB14C08FE482BB11C086E6EB
:1000D00082BB0EC08DE682BB0BC08DE782BB08C021
:1000E00087E082BB05C08FE782BB02C08FE682BB80
:1000F000662321F0979A08958DEF82BB089540E022
:1001000020E030E0C9010197F1F74F5F4A30D1F7A5
:10011000089527E28031920700F5009711F440E03E
:1001200013C040E0EAE0F0E021E630E0BF010E94C9
:100130001701D901A40FB11D8C934F5F862F972F04
:100140000097A1F7443048F481E690E0FC01E40F09
:10015000F11D10824F5F4430C8F308950F931F9331
:10016000CF93DF9383B7846083BF89B7816089BFF2
:1001700012BE87B38F6087BB81E088BB8FEF81BBE6
:1001800012BA7894C0E0D0E000E010E0CE010E9406
:1001900089000E947F00219687E2C031D807B0F322
:1001A000E801F4CF1F920F920FB60F9211242F93F4
:1001B0003F934F935F936F937F938F939F93AF93EF
:1001C000BF93EF93FF9380916000833019F41092F6
:1001D000600003C08F5F8093600088B3807F88BB1E
:1001E00058B34091600021E030E0C901042E02C004
:1001F000880F991F0A94E2F7852B88BBE1E6F0E0AF
:10020000E40FF11D808160E00E943E00FF91EF91BC
:10021000BF91AF919F918F917F916F915F914F911E
:100220003F912F910F900FBE0F901F901895AA1B12
:10023000BB1B51E107C0AA1FBB1FA617B70710F0D1
:10024000A61BB70B881F991F5A95A9F78095909503
:0A025000BC01CD010895F894FFCF22
:00000001FF
