:100000000C942A000C9434000C9434000C943400AA
:100010000C9434000C9434000C9434000C94340090
:100020000C9434000C9434000C9434000C94340080
:100030000C9434000C9434000C9434000C94340070
:100040000C9434000C9434000C9434000C94340060
:100050000C94340011241FBECFE5D8E0DEBFCDBF25
:100060000E9440000C9460000C940000882339F03A
:10007000E6E6FEE03197F1F700008150C9F70895F8
:100080008EB58C608EBD80E091EE9BBD8ABD87B33E
:10009000806C87BBB89898B380E4892788BB20E040
:1000A00030E050E140ECC90108B604FE02C0019600
:1000B00058BF85309105C4F388B3842788BBF3CF3C
:0400C000F894FFCFE2
:00000001FF
