:100000000C942A000C943F000C943F000C943F0089
:100010000C943F000C943F000C943F000C943F0064
:100020000C943F000C943F000C943F000C943F0054
:100030000C943F000C943F000C943F000C943F0044
:100040000C943F000C943F000C943F000C943F0034
:100050000C943F0011241FBECFE5D8E0DEBFCDBF1A
:1000600010E0A0E6B0E0E4E6F5E002C005900D92F5
:10007000A83DB107D9F70E94DA010C94B0020C94A4
:10008000000085E080B981B18C7F81B90895282F67
:1000900054EA40EA34E856BF06B607FEFDCF81B108
:1000A000887F883091F543B936BF06B607FEFDCF8D
:1000B00081B1887F883179F793B984E886BF06B625
:1000C00007FEFDCF81B1887F8832F9F423B984E837
:1000D00086BF06B607FEFDCF81B1887F8832A9F4BE
:1000E00063B984E886BF06B607FEFDCF81B1887F7D
:1000F000883259F484E986BF06B604FCFDCF8CEC47
:100100009CEA0197F1F781E0089580E00895282F97
:1001100054EA40EA34E856BF06B607FEFDCF81B187
:10012000887F883009F041C043B936BF06B607FE64
:10013000FDCF81B1887F883171F793B984E886BF9C
:1001400006B607FEFDCF81B1887F883271F523B9ED
:1001500084E886BF06B607FEFDCF81B1887F88326E
:1001600021F584EA86BF06B607FEFDCF81B1887F00
:100170008031D9F481EA83B984E886BF06B607FEE8
:10018000FDCF81B1887F803481F484E886BF06B6D4
:1001900007FEFDCF81B1887F883539F493B184E9BA
:1001A00086BF06B604FCFDCF01C090E0892F0895FC
:1001B00087B3807F87BBAE9AAF9882E08A95F1F7CC
:1001C00022E034E0C49A822F8A95F1F786B38295B3
:1001D000807F922F9A95F1F7C498932F9A95F1F713
:1001E000C49A922F9A95F1F796B3922F9A95F1F7B8
:1001F000C498932F9A95F1F787FDE4CFAE9887B313
:100200008F6087BB0895282F662311F4AF9801C033
:10021000AF9A82E08A95F1F7C49A88B3922F9295AB
:100220009F70807F982B98BB94E0892F8A95F1F777
:10023000C498892F8A95F1F7C49A88B32F70807F6C
:10024000822B88BB892F8A95F1F7C4989A95F1F78C
:100250000E94D80008951F93182F8CE291E020E7A8
:1002600031E0F9013197F1F70197D9F787B38F6042
:1002700087BBBC9AA79AA69A88B3807F88BBC4988C
:10028000AE98AF9881E08A95F1F7C49AC19A84E05C
:10029000982F9A95F1F7C4988A95F1F70E94D800A3
:1002A000812F8C6060E00E94030188E260E00E9480
:1002B00003011F910895CF93DF93EC0104C061E027
:1002C0000E940301219688818823C9F7DF91CF918D
:1002D0000895EF92FF920F931F93DF93CF9300D077
:1002E00000D00F92CDB7DEB79C018B01FE01319695
:1002F00085E0DF011D928A95E9F7FE0135960DC074
:10030000C9016AE070E00E9489028083C9016AE045
:1003100070E00E9489029B0131972115310581F718
:10032000BFEF0F3F1B0779F420E030E0AE014F5FD5
:100330005F4F02C02F5F3F4FFA01E20FF31F808132
:100340008823C1F304C025E030E0201B310B7E017F
:100350000894E11CF11CE20EF31E890109C0F701AB
:1003600081917F01805D61E00E9403010F5F1F4F5B
:1003700005301105A4F30F900F900F900F900F9080
:10038000CF91DF911F910F91FF90EF9008958832E8
:1003900030F461118064806860E00E940301089578
:1003A00020E040E050E0CA010197F1F72F5F2436CA
:1003B000D1F708951F93CF93DF9381E00E942B0123
:1003C00085E080B981B18C7F81B980E090E00197B0
:1003D000F1F781E060E00E94030180E690E00E9476
:1003E0005B0180E061E00E94C70180E790E00E942D
:1003F0005B0120E040E050E0CA010197F1F72F5F78
:100400002436D1F781E060E00E94030185E790E0A7
:100410000E945B01C0E0D0E0CE0167E00E9447008F
:10042000882301F581E060E00E94030181E890E00B
:100430000E945B0180E061E00E94C70180E990E0DA
:100440000E945B01CE0164E070E00E94690120E03F
:1004500040E050E0CA010197F1F72F5F2436D1F751
:1004600011E006C0219680E2C030D807A9F610E05E
:1004700081E060E00E940301112321F48AE990E009
:100480000E945B0120E040E050E0CA010197F1F7D3
:100490002F5F2436D1F781E060E00E9403018CEAEF
:1004A00090E00E945B01C0E0D0E0CE010E94870096
:1004B0008730F9F081E060E00E9403018AEB90E070
:1004C0000E945B0180E061E00E94C70180E990E04A
:1004D0000E945B01CE0164E070E00E94690120E0AF
:1004E00040E050E0CA010197F1F72F5F2436D1F7C1
:1004F00006C0219680E2C030D807B9F601C0FFCF10
:1005000081E060E00E94030188EC90E00E945B01C2
:10051000F6CF97FB092E07260AD077FD04D00CD022
:1005200006D000201AF4709561957F4F0895F6F774
:10053000909581959F4F0895AA1BBB1B51E107C061
:10054000AA1FBB1FA617B70710F0A61BB70B881F63
:10055000991F5A95A9F780959095BC01CD010895F2
:04056000F894FFCF3D
:1005640045787465726E616C20454550524F4D005C
:1005740054657374005772697474696E672E2E2EF5
:10058400005772697465204661696C6564202100B6
:10059400416464657373203D200057726974746507
:1005A4006E20383139326279746573005665726928
:1005B4006679696E67202E2E2E00566572696679FB
:1005C400204661696C6564005772697465205375CF
:0805D4006363657373202100CD
:00000001FF
