:100000000C942A000C943F000C943F000C943F0089
:100010000C943F000C943F000C943F000C943F0064
:100020000C943F000C943F000C943F000C943F0054
:100030000C943F000C943F000C943F000C943F0044
:100040000C943F000C943F000C943F000C943F0034
:100050000C943F0011241FBECFE5D8E0DEBFCDBF1A
:1000600011E0A0E6B0E0E0E2F4E002C005900D92FD
:10007000AE30B107D9F70E9464010C940E020C94C3
:10008000000087B3807F87BB969A939882E08A9519
:10009000F1F722E034E0C49A822F8A95F1F786B313
:1000A0008295807F922F9A95F1F7C498932F9A9515
:1000B000F1F7C49A922F9A95F1F796B3922F9A95E9
:1000C000F1F7C498932F9A95F1F787FDE4CF9698AE
:1000D00087B38F6087BB0895282F662311F4939808
:1000E00001C0939A82E08A95F1F7C49A88B3922F5F
:1000F00092959F70807F982B98BB94E0892F8A956A
:10010000F1F7C498892F8A95F1F7C49A88B32F70B4
:10011000807F822B88BB892F8A95F1F7C4989A95A6
:10012000F1F70E9441000895CF93DF93EC0110C0D6
:10013000853251F4219688818053883028F085E2F9
:1001400061E00E946C00888161E00E946C00219651
:100150008881882369F7DF91CF910895EF92FF920C
:100160000F931F93DF93CF9300D000D00F92CDB7A2
:10017000DEB79C018B01FE01319685E0DF011D9207
:100180008A95E9F7FE0135960DC0C9016AE070E075
:100190000E94E7018083C9016AE070E00E94E701E4
:1001A0009B0131972115310581F7BFEF0F3F1B07E9
:1001B00079F420E030E0AE014F5F5F4F02C02F5F67
:1001C0003F4FFA01E20FF31F80818823C1F304C07F
:1001D00025E030E0201B310B7E010894E11CF11C6E
:1001E000E20EF31E890109C0F70181917F01805D54
:1001F00061E00E946C000F5F1F4F05301105A4F3F2
:100200000F900F900F900F900F90CF91DF911F9153
:100210000F91FF90EF900895843178F4623031F0BF
:10022000633031F0613029F4806403C08C5E01C01A
:100230008C5A806860E00E946C0008951F93CF93F1
:10024000DF93182F8CE291E020E731E0F90131973C
:10025000F1F70197D9F787B38F6087BBBC9A8B9A68
:100260008E9A88B3807F88BBC4989698939881E0D3
:100270008A95F1F7C49AC19A84E0982F9A95F1F77C
:10028000C4988A95F1F70E944100812F8C6060E04C
:100290000E946C0088E260E00E946C0080E460E0F4
:1002A0000E946C00CEECD0E0899161E00E946C006D
:1002B00081E0CE30D807C1F780E060E00E940C01F9
:1002C000DF91CF911F9108950F931F93CF93DF93E9
:1002D00083E00E941E0181E060E00E946C0080E6E5
:1002E00090E00E94940080E061E00E940C018AE6A8
:1002F00090E00E949400C0E0D0E000E010E089E0CF
:1003000061E00E940C01CE0163E070E00E94AE004B
:100310008CE061E00E940C0183E790E00E94940071
:10032000C8010197F1F7C8010197F1F7C8010197DA
:10033000F1F7C8010197F1F72196C336D105F9F617
:1003400081E060E00E946C0086E790E00E949400EB
:1003500080E061E00E940C0182E890E00E9494003D
:1003600020E040E050E0CA010197F1F72F5F24360A
:10037000D1F781E060E00E946C0083E990E00E9488
:10038000940080E061E00E940C018FE990E00E94FF
:10039000940020E040E050E0CA010197F1F72F5FA0
:1003A0002436D1F781E060E00E946C008DEA90E095
:1003B0000E94940080E061E00E940C018DEB90E0CF
:1003C0000E949400DF91CF911F910F91089597FBA8
:1003D000092E07260AD077FD04D00CD006D00020C5
:1003E0001AF4709561957F4F0895F6F79095819571
:1003F0009F4F0895AA1BBB1B51E107C0AA1FBB1F3B
:10040000A617B70710F0A61BB70B881F991F5A95A0
:10041000A9F780959095BC01CD010895F894FFCF80
:10042000436F6E677261747320004C6F6164696E14
:1004300067200025200048656C6C6F20776F726C18
:100440006400427920596F75724E616D6520486570
:100450007265002020202065587472656D6500204B
:1004600020456C656374726F6E69637300437573C6
:10047000746F6D2043686172202121210025302591
:1004800031253225332534253525362537000C1204
:10049000120C000000000C1204081E0000000A15D7
:1004A000110A040000000305090B0B1818001F0EA9
:1004B0000E040404040401010505151515000E11B0
:0E04C000111F1F1F1F000000000000000000A1
:00000001FF
