:100000000C942A000C9434000C9434000C943400AA
:100010000C9434000C9434000C9434000C94340090
:100020000C9434000C9434000C9434000C94340080
:100030000C9434000C9434000C9434000C94340070
:100040000C9434000C9434000C9434000C94340060
:100050000C94340011241FBECFE5D8E0DEBFCDBF25
:100060000E9436000C9489000C9400001F93CF93DB
:10007000DF9387B3806C87BBB898C09A88B38058E9
:1000800088BBA0E0B0E060E070E040E050E080E0DD
:1000900090E0C0E7D1E010EC02C080E090E0B099C1
:1000A0000EC06F5F7F4F21E061397207ACF010978F
:1000B00099F40196A1E0B0E060E070E00DC04F5F00
:1000C0005F4F21E0413952073CF0A130B10521F4E6
:1000D000A0E0B0E040E050E08530910504F320E07E
:1000E00030E014C0FE013197F1F70197D9F788B3DA
:1000F000812788BB80E197E2FE013197F1F70197F4
:10010000D9F72F5F3F4F2630310539F280E197E272
:06011000E9CFF894FFCFD7
:00000001FF
