:100000000C942A000C943C000C943C000C943C0092
:100010000C943C000C943C000C943C000C943C0070
:100020000C943C000C943C000C943C000C943C0060
:100030000C943C000C943C000C943C000C943C0050
:100040000C943C000C943C000C943C000C943C0040
:100050000C943C0011241FBECFE5D8E0DEBFCDBF1D
:1000600010E0A0E6B0E001C01D92A436B107E1F7B0
:100070000E94C8000C9435010C9400002FEF27BBA0
:1000800028BB8430910581F18530910568F4813079
:10009000910509F181309105D8F082309105F1F098
:1000A0008330910599F51DC08730910531F1883075
:1000B000910538F485309105D1F08630910531F500
:1000C00019C088309105E1F089309105F9F41BC021
:1000D0008DED88BB089580E588BB08958BE988BBCA
:1000E00008958AED88BB089586E588BB08958EEC57
:1000F00088BB08958FEC88BB089588E588BB089578
:100100008FED88BB08958EED88BB08958FEF88BB77
:100110000895CF93DF932FEF21BB12BA0097A9F078
:1001200020E030E0EAE0F0E0BF010E94F400D901F5
:10013000AA0FBB1FA05ABF4F11969C938E93862F78
:10014000972F2F5F3F4F009779F781E082BBCEE377
:10015000D0E08091600090916100FE0109958FEFE1
:1001600097E40197F1F700C0000012BA82E082BB69
:100170008091620090916300FE0109958FEF97E4F2
:100180000197F1F700C0000012BADF91CF910895F6
:10019000EF92FF92CF93DF938FEF87BB8EEF84BBFD
:1001A000A89A84E690E00E940801E82EE7017E010B
:1001B000F92EE70183B380FD13C02196CE010E9482
:1001C00089008FEF9FE7A4E081509040A040E1F7C5
:1001D00000C0000084E690E0BE010E940E01EACF5C
:1001E000CE010E948900E6CFAA1BBB1B51E107C0CC
:1001F000AA1FBB1FA617B70710F0A61BB70B881FB7
:10020000991F5A95A9F780959095BC01CD01089545
:10021000A8E1B0E042E050E00C9416010196272FCF
:100220000E9425010C942401DC01CB01FC01E19921
:10023000FECF06C0FFBBEEBBE09A31960DB20D9229
:1002400041505040B8F70895262FE199FECF9FBB4B
:100250008EBBE09A01970DB2021631F02DBB0FB69E
:0E026000F894E29AE19A0FBE0895F894FFCF49
:00000001FF
