:100000000C942A000C9434000C9434000C943400AA
:100010000C9434000C9434000C9434000C94340090
:100020000C9434000C9434000C9434000C94340080
:100030000C9434000C9434000C9434000C94340070
:100040000C9434000C9434000C9434000C94340060
:100050000C94340011241FBECFE5D8E0DEBFCDBF25
:100060000E9446000C946C000C940000882339F028
:10007000E6E6FEE03197F1F700008150C9F70895F8
:1000800083B7896683BF08958CBF0895EF92FF926E
:100090000F931F93CF93DF930E944000BB9AC0E061
:1000A000D0E0FF24FA9400E010E007C08C2F0E94FB
:1000B00044008AE00E9436002196CF3FD105B1F37B
:1000C000ACF3EF2C8E2D0E9444008AE00E94360093
:0C00D000EA94C1F7E801F1CFF894FFCFEB
:00000001FF
